:020000040800F2
:10000000483A00208902000891020008A90300086C
:1000100095020008970200089902000800000000FD
:100020000000000000000000000000009B0200082B
:100030009D02000800000000F7020008FD420008D1
:10004000A3020008A3020008A3020008A3020008FC
:10005000A3020008A3020008E70B0008350C000803
:10006000470C0008590C00086B0C0008A30200089C
:10007000A3020008A3020008A3020008A3020008CC
:10008000A3020008A3020008A3020008A3020008BC
:10009000A3020008A3020008A30200087D0C0008C8
:1000A000A3020008A3020008A3020008A30200089C
:1000B000A3020008A3020008A3020008A30200088C
:1000C000A3020008A3020008A3020008413F0008A1
:1000D000A302000891470008A3020008A302000839
:1000E000F90B0008A3020008A3020008A3020008FD
:1000F000A3020008A3020008A3020008A30200084C
:10010000A3020008A3020008A3020008A30200083B
:10011000A3020008A3020008A3020008A30200082B
:10012000AD0A0008A3020008A3020008C50A0008DF
:10013000A3020008A3020008A3020008A30200080B
:10014000A3020008A3020008A3020008A3020008FB
:10015000A3020008A3020008A3020008A3020008EB
:10016000A3020008A3020008A3020008A3020008DB
:10017000A3020008A3020008A30200080000000078
:10018000A3020008A302000800F002F800F065F8DE
:100190000AA090E8000C82448344AAF10107DA45E2
:1001A00001D100F05AF8AFF2090EBAE80F0013F0CF
:1001B000010F18BFFB1A43F001031847C4B4010034
:1001C000E4B401000A444FF0000C10F8013B13F0B6
:1001D000070408BF10F8014B1D1108BF10F8015BA0
:1001E000641E05D010F8016B641E01F8016BF9D193
:1001F00013F0080F1EBF10F8014BAD1C0C1B09D1EA
:100200006D1E58BF01F801CBFAD505E014F8016B5B
:1002100001F8016B6D1EF9D59142D6D370470000ED
:100220000023002400250026103A28BF78C1FBD8FF
:10023000520728BF30C148BF0B6070471FB516F08A
:10024000CBF900F0E7FB04000020002116F070F865
:10025000401C60601FBD10B510BD00F0EDFB1146E5
:10026000FFF7ECFF00F01DFC00F00BFC03B4FFF700
:10027000F2FF03BC00F00EFC002804D090FAA0F0BE
:10028000B0FA80F0401C7047094880470948004791
:10029000FEE7FEE7FEE7FEE7FEE7FEE7FEE7FEE736
:1002A000FEE7FEE704480549054A064B7047000093
:1002B000094400088901000848340020483A002019
:1002C0004836002048360020EFF3108072B67047A1
:1002D00080F310887047424A1368012B04D04FF016
:1002E000010313603F4A10603F4A11603F484FF0DE
:1002F000805101607047EFF3108272B63848016890
:1003000051B34FF0000101603648016891B1EFF33D
:1003100009811EF0100F08BF21ED108B21E9F00FAD
:100320004FF000041EF0100F08BF012441F8044DE7
:10033000006801602C490968096808C9B1E8F00F34
:10034000002B18BFB1EC108B81F309884EF0100E12
:10035000002B18BF2EF0100E82F310884EF0040E02
:10036000704721490860EFF3148222F0040282F3FF
:1003700014881C494FF00000086019494FF0010033
:1003800008601B481B49D0F8002041EA02010160C7
:1003900016484FF08051016017480068006880F3EC
:1003A000088861B662B670471EF0040F0CBFEFF309
:1003B0000880EFF3098020E9F00F40F804ED40F8E1
:1003C00004ED1EF0040F0CBF80F3088880F3098849
:1003D00000B50EF01BFB5DF804EB4EF0040E704709
:1003E000140000200C0000201000002004ED00E0AC
:1003F00020ED00E00000FFFF08ED00E053EA020CF2
:1004000000F069802DE9F04B4FF00006002B1FBF74
:10041000B3FA83F503FA05F424FA05F65E4012BF39
:100420001643B2FA82F502FA05F4C5F120051EBFA3
:1004300022FA05FC44EA0C04203556EA044C4FEA43
:10044000144418BF641C4FF000084FF0000990429C
:1004500071EB030C39D3002919BFB1FA81F701FA06
:1004600007F6B0FA80F700FA07F6C7F120071EBFBB
:1004700020FA07FC46EA0C062037B6FBF4FCA7EB93
:100480000507103F07F01F0BCBF120060CFA0BFB02
:100490002CFA06F644BFB3460026202FA4BF5E46C2
:1004A0004FF0000B5BEA060C08BF4FF0010B19EB95
:1004B0000B09ABFB027C48EB0608C01B06FB02CC19
:1004C0000BFB03CC71EB0C01C1E70B460246414626
:1004D0004846BDE8F08B13B54FF000004FF0000127
:1004E000AFF30080BDE81C4070472DE9F04791460E
:1004F0000F4680460446002614F8015B2DB100F03B
:1005000029FA0068405DC007F6D12B2D02D02D2DB1
:1005100018D0641E4A463946204600F027FA27B113
:100520003968A14201D1C7F800804FF0020471057B
:100530000BD54042002803DD00F014FA0460A00748
:10054000BDE8F08746F48066E4E70028F8DA00F0BA
:1005500009FA04606FF00040F2E740EA010310B5C9
:100560009B070FD1042A0DD310C808C9121F9C4243
:10057000F8D020BA19BA884201D9012010BD4FF035
:10058000FF3010BD1AB1D30703D0521C07E0002082
:1005900010BD10F8013B11F8014B1B1B07D110F8DF
:1005A000013B11F8014B1B1B01D1921EF1D11846E2
:1005B00010BD40EA0103024630B59B0710D14FF051
:1005C000013400E008C208C91D1B9D4315EAC41F81
:1005D000F8D013F0FF0102F8011B0DD01B0AF8E759
:1005E00011F8013B002B02F8013B05D011F8013B4B
:1005F000002B02F8013BF3D130BD10B5431C02E0E3
:1006000010F8011B71B18107FAD14FF0013202C815
:100610008C1A8C4314EAC211F9D0C01A0A0603D00E
:10062000C01E10BDC01A10BD0A0401D0801E10BD2E
:100630000902FCD0401E10BD40EA010370B59B07C3
:100640002ED14FF00136042A2AD308C810C99D1BA9
:100650009D43121F15EAC61517D0D8B2E1B2401A51
:1006600050EA056110D198B2A1B2401A50EA054192
:100670000AD123F07F4024F07F41401A50EA05213F
:1006800002D1180EA0EB146070BDA342DBD018BAE3
:1006900021BA884201D9012070BD4FF0FF3070BDF2
:1006A0000AB9002070BD10F8013B11F8014B63B18D
:1006B000A3420AD1521E08D010F8013B11F8014B99
:1006C0001BB1A34201D1521EEDD1181B70BD421EB9
:1006D00012F8013F002BFBD111F8013B002B02F86F
:1006E000013BF9D17047032A40F2308010F0030C2F
:1006F00000F0158011F8013BBCF1020F624498BF75
:1007000011F801CB00F8013B38BF11F8013BA2F111
:10071000040298BF00F801CB38BF00F8013B11F08C
:10072000030300F02580083AC0F0088051F8043B2C
:10073000083A51F804CBA0E80810F5E7121D5CBF99
:1007400051F8043B40F8043BAFF30080D20724BFCC
:1007500011F8013B11F801CB48BF11F8012B24BF60
:1007600000F8013B00F801CB48BF00F8012B7047AF
:1007700010B5203AC0F00B80B1E81850203AA0E83C
:100780001850B1E81850A0E81850BFF4F5AF5FEA70
:10079000027C24BFB1E81850A0E8185044BF18C923
:1007A00018C0BDE810405FEA827C24BF51F8043BCA
:1007B00040F8043B08BF7047D20728BF31F8023B1E
:1007C00048BF11F8012B28BF20F8023B48BF00F8B2
:1007D000012B704702F0FF0343EA032242EA024280
:1007E00000F002B84FF000020429C0F0128010F0AF
:1007F000030C00F01B80CCF1040CBCF1020F18BFFD
:1008000000F8012BA8BF20F8022BA1EB0C0100F08F
:100810000DB85FEAC17C24BF00F8012B00F8012B62
:1008200048BF00F8012B70474FF0000200B5134697
:1008300094469646203922BFA0E80C50A0E80C5000
:10084000B1F12001BFF4F7AF090728BFA0E80C50B1
:1008500048BF0CC05DF804EB890028BF40F8042BAA
:1008600008BF704748BF20F8022B11F0804F18BF17
:1008700000F8012B704710B5044610F0030F08BFB5
:1008800011F0030F40F015804FF0013E121FC0F22F
:100890000E8051F8043BA3EB0E0C2CEA030C1CEA6F
:1008A000CE1C08BF40F8043BF0D0A1F1040102F1D6
:1008B0000402521E08DB11F8013B002B00F8013B3B
:1008C000F7D11146FFF78EFF204610BD4FF0013CD7
:1008D00050F8042B51F8043B9A4221D1A2EB0C03AF
:1008E000934313EACC1317D150F8042B51F8043B6F
:1008F0009A4215D1A2EB0C03934313EACC130BD10C
:1009000050F8042B51F8043B9A4209D1A2EB0C0396
:10091000934313EACC13DBD04FF00000704700BFC5
:10092000D01A01BAB1FA81F101F0180122FA01F0EE
:10093000CB40C1F12001DBB2C0B2C01A2CFA01F3E6
:10094000D11A914311EAC311E6D17047704770473D
:100950007047000010B500F05DF8001D10BD00BF2D
:10096000D159010000487047E43300202DE9F05FC1
:10097000824615468B4600270AF10104B9460078E5
:10098000302801D09DB113E014F8010B012778281D
:1009900003D0582801D045B10AE00DB1102D07D180
:1009A000002714F8010B102502E0082500E00A25B5
:1009B0000026B0460EE005FB080005FB06F1012706
:1009C0001FFA80F801EB1046B6F5803F00D3B94618
:1009D00014F8010B294600F021F80028EBDABBF1EE
:1009E000000F05D00FB1641E00E05446CBF8004064
:1009F000B9F1000F06D0FFF7B5FF02210160C81E54
:100A0000BDE8F09F48EA0640FAE70000004870475A
:100A1000E433002000487047043400203A2800D214
:100A2000303820F02002412A01D3A2F13700884259
:100A300001D34FF0FF3070477546FFF7E7FFAE4632
:100A400005006946534620F00700854618B020B5DA
:100A5000FFF728FCBDE820404FF000064FF00007EC
:100A60004FF000084FF0000B21F00701AC46ACE856
:100A7000C009ACE8C009ACE8C009ACE8C0098D46C3
:100A8000704710B50446AFF300802046BDE8104023
:100A9000FFF7ECBB01491820ABBEFEE726000200C1
:100AA000704710B512F02BF9002010BD10B50EF0F4
:100AB000F1FC034800F05EFB0EF016FD10BD0000D7
:100AC0006803002010B50EF0E5FC034800F052FB6F
:100AD0000EF00AFD10BD0000C80300200146087892
:100AE00010381823B0FBF3F20848805CC865032A6D
:100AF00005D908686FF30900001D886503E00868E0
:100B00006FF309008865886D70470000FA65010879
:100B1000014600208A6A8B69CBB932B1012A0DD017
:100B2000022A03D0032A10D10EE000BFCB6A03F0E3
:100B30008073B3F1807F00D1012007E0CB6AB3F16D
:100B4000C07F00D1012001E000E000BF34E08B69EC
:100B5000B3F5005F1AD132B1012A07D0022A03D0BF
:100B6000032A11D10AE000BF01200EE0CB6A03F096
:100B70008073B3F1807F00D1012006E0CB6AB3F12E
:100B8000C07F00D1012000E000BF15E032B1012A92
:100B900005D0022A04D0032A0CD103E000BF00BF15
:100BA000012008E0CB6A03F08073B3F1807F00D1AD
:100BB000012000E000BF00BF704730B50468246822
:100BC00024F4802405682C60046863608468402CE9
:100BD00004D10468A2600468E16003E00468A160D5
:100BE0000468E26030BD10B50EF054FC012000F046
:100BF000C3FE0EF079FC10BD10B50EF04BFC4FF4A7
:100C0000806000F0B9FE4FF4006000F0B5FE4FF4D4
:100C1000805000F0B1FE4FF4005000F0ADFE4FF4F4
:100C2000804000F0A9FE4FF4004000F0A5FE0EF059
:100C30005BFC10BD10B50EF02DFC022000F09CFEF8
:100C40000EF052FC10BD10B50EF024FC042000F094
:100C500093FE0EF049FC10BD10B50EF01BFC0820F1
:100C600000F08AFE0EF040FC10BD10B50EF012FC34
:100C7000102000F081FE0EF037FC10BD10B50EF014
:100C800009FC202000F078FE402000F075FE802056
:100C900000F072FE4FF4807000F06EFE4FF40070B2
:100CA00000F06AFE0EF020FC10BD000010B500221E
:100CB00001B909E0012901D10A0205E0022901D1A7
:100CC0000A0201E04FF440720E4B1B6823F440739C
:100CD0000C4C236023461B681343236023461B6888
:100CE00023F0F803236023461B68022444EAC0046F
:100CF0002343044C236023461B6843F48033236062
:100D000010BD0000103C02401C48006800F4007058
:100D1000B0B11A48006820F400701849086000BF9C
:100D20000846006840F4006008600846006820F447
:100D30000060086000BF0846006840F4007008606A
:100D40000E48006800F48060B0B10C48006820F4E0
:100D500080600A49086000BF0846006840F480507F
:100D600008600846006820F48050086000BF08460C
:100D7000006840F48060086070470000003C02405A
:100D80000A4A126822F44072084B1A601A46126826
:100D900042F004021A601A4612684FF4803343EAA4
:100DA00000231A43014B1A6070470000103C0240B8
:100DB000074A126822F44072054B1A601A461268FC
:100DC0001A601A46126842F001021A6001707047F8
:100DD000103C024010B50D49096821F440710B4CDC
:100DE00021602146096841F440712160214609686B
:100DF00041F001012160026000BF00BF00BFBFF3EE
:100E00006F8F00BF00BF00BF436010BD103C0240A9
:100E1000084A126822F44072064B1A601A46126899
:100E200042F480721A601A46126842F001021A6097
:100E300001807047103C0240084A126822F4407258
:100E4000064B1A601A46126842F400721A601A467B
:100E5000126842F001021A6001607047103C0240C3
:100E60002348006800F0100040B12248C06940F0FB
:100E700010002049C86110201D4908601C48006806
:100E800000F0200040B11B48C06940F0080019493B
:100E9000C8612020164908601548006800F040002D
:100EA00040B11448C06940F004001249C8614020B4
:100EB0000F4908600E48006800F0800040B10D48FE
:100EC000C06940F002000B49C861802008490860F1
:100ED0000748006800F0020040B10648C06940F0D1
:100EE00020000449C86102200149086070470000E1
:100EF0000C3C0240E802002070B5044600250020AA
:100F00001449C86100F04EFE054609E0601C38B186
:100F100024B100F047FE401BA04201D9032070BD60
:100F20000D48006800F480300028EFD10A480068BE
:100F300000F0010010B10120074908600648006870
:100F400000F0F20018B1FFF78BFF0120E7E7002067
:100F5000E5E70000E80200200C3C024070B50446C2
:100F6000B3F5804F13D1D1E9000540EA05108D6833
:100F700040EA05208D6928438D8940EA054054F8F0
:100F80002250064E3540284344F8220003E06FF01B
:100F9000704044F82200002070BD00000000F0CF37
:100FA00070B50246086852F8200020F001000E6873
:100FB00042F826008868082801D1402300E0002379
:100FC000486818438E683043CE6830430E6930431A
:100FD0004E693043CE6930430E6A30434E6A304327
:100FE0008E6A3043CE6A30430E6B40EA060488694D
:100FF0000443C86B0443074D45F4806545F4E02580
:10100000086852F82000A84320430E6842F82600E2
:10101000002070BD7FFB080010B50346D1E9000435
:1010200040EA04108C6840EA04208C8940EA0444B9
:10103000088A401E44EA0054087D801E44EA00608D
:101040008C692043541C53F8244004F0404420434E
:10105000541C43F82400002010BD0000014600206D
:101060002F4A914203D2B1F1006F00D356E02D4ACE
:10107000914204D22A4A914201D301204EE02A4AE9
:10108000914204D2274A914201D3022046E0274AE6
:10109000914204D2244A914201D303203EE0244AE3
:1010A000914204D2214A914201D3042036E0214AE0
:1010B000914204D21E4A914201D305202EE01E4ADD
:1010C000914204D21B4A914201D3062026E01B4ADA
:1010D000914204D2184A914201D307201EE0184AD7
:1010E000914204D2154A914201D3082016E0154AD4
:1010F000914204D2124A914201D309200EE0124AD1
:10110000914204D20F4A914201D30A2006E0B1F184
:10111000016F03D20C4A914200D30B2070470000AC
:10112000004000080080000800C00008000001081E
:10113000000002080000040800000608000008087B
:1011400000000A0800000C0800000E08014691F893
:101150003500022803D08020486501207047052013
:1011600081F835000868006820F001000A68106006
:101170000020F3E7F8B50446002000908C48006892
:101180004FF41651B0FBF1F7A56D2E6894F85C1082
:1011900008208840304098B12068006800F00400C2
:1011A00070B12068006820F004002168086094F89D
:1011B0005C1008208840A860606D40F00100606508
:1011C00094F85C1001208840304068B12068406984
:1011D00000F0800040B194F85C1001208840A860C5
:1011E000606D40F00200606594F85C100420884057
:1011F000304068B12068006800F0020040B194F807
:101200005C1004208840A860606D40F004006065B8
:1012100094F85C1010208840304078B32068006853
:1012200000F0080050B394F85C1010208840A860CB
:101230002068006800F4802080B12068006800F415
:10124000002028B9206CC8B12046216C884715E0E1
:10125000A06C98B12046A16C88470FE02068006818
:1012600000F4807028B92068006820F00800216828
:101270000860206C10B12046216C884794F85C10FF
:10128000202088403040002865D02068006800F0A9
:10129000100000285FD094F85C1020208840A860DF
:1012A00094F83500052828D12068006820F0160041
:1012B000216808602068406920F08000216848614A
:1012C000206C08B9A06C28B12068006820F00800E4
:1012D0002168086094F85C103F208840A8600120D5
:1012E00084F8350000BF002084F8340000BF206D72
:1012F00010B12046216D8847F8BD2068006800F4D1
:10130000802080B12068006800F4002028B9606C5B
:1013100010B12046616C88471DE0E06BD8B12046D3
:10132000E16B884717E02068006800F4807068B9B6
:101330002068006820F0100021680860012084F80F
:10134000350000BF002084F8340000BFE06B10B10E
:101350002046E16B8847606D38B3606D00F0010096
:10136000F0B1052084F835002068006820F0010005
:101370002168086000BF0098401C0090B84200D966
:1013800005E02068006800F001000028F3D100BFEC
:10139000012084F8350000BF002084F8340000BF2D
:1013A000E06C10B12046E16C884700BFA4E7000064
:1013B000080000202DE9F0410446002500F0F2FB72
:1013C000074614B90120BDE8F081606A00B100BF92
:1013D000022084F8350000BF002084F8340000BFEC
:1013E0002068006820F00100216808600AE000F031
:1013F000D9FBC01B052805D920206065032084F88F
:101400003500E0E72068006800F001000028EED118
:101410002068056821480540D4E901010843E168D6
:1014200008432169084361690843A1690843E169E8
:101430000843216A08430543606A042803D1D4E9BC
:101440000B0108430543206805602068456925F0C5
:101450000705606A0543606A04280DD1A06A054348
:10146000E06A48B12046FFF753FB28B14020606591
:10147000012084F83500A6E7206845612046FFF783
:101480002DFB064694F85C103F208840B060002099
:101490006065012084F83500002094E73F8010F05B
:1014A0002DE9F04704460D4616461F464FF000084A
:1014B000D4F8589000BF94F83400012802D10220DB
:1014C000BDE8F087012084F8340000BF94F83500AF
:1014D000012825D1022084F83500002060653B46B4
:1014E000324629462046FFF768FB94F85C103F20FF
:1014F0008840C9F808002068006840F0160021689C
:101500000860206C28B12068006840F0080021685D
:1015100008602068006840F001002168086006E06B
:1015200000BF002084F8340000BF4FF0020840469E
:10153000C6E7000010B54FF0FF300E4908600020EC
:101540000860401E091D086000200860401E09490F
:101550001039086000200860401E091D0860002046
:101560000860401E091D08600020086000F04BFB69
:10157000002010BD203802402DE9F04104460E46FF
:101580000127002500BF2548007E012802D1022046
:10159000BDE8F08101202149087600BF4CF25030AF
:1015A000FFF7AAFC0746002F31D1401E30602068AB
:1015B00001280FD1207C6168FFF7E2FB4CF250302C
:1015C000FFF79AFC07461648006820F0040014490B
:1015D00008601AE0A56812E0217C2846FFF766FB48
:1015E0004CF25030FFF788FC07460D48006820F0A9
:1015F000FA000B4908600FB1356005E06D1CD4E9B5
:1016000002100844A842E7D800BFFFF77DFB00BFE7
:1016100000200249087600BF3846B9E7E8020020FA
:10162000103C02400348006840F000400149086057
:1016300000207047103C02402DE9F04106460F465D
:1016400014461D464FF0010800BF1F48007E0128C8
:1016500002D10220BDE8F08101201B49087600BFBD
:101660004CF25030FFF748FC8046B8F1000F23D110
:1016700026B9E1B23846FFF79BFB12E0012E04D1F8
:10168000A1B23846FFF7C4FB0BE0022E04D121467D
:101690003846FFF7D1FB04E022462B463846FFF7D9
:1016A00099FB4CF25030FFF727FC80460748006852
:1016B00020F001000549086000BF002002490876BB
:1016C00000BF4046C6E70000E8020020103C024090
:1016D00000200949096801F0004159B10749064A4B
:1016E0000C3A1160064911600349096801F0004194
:1016F00001B1012070470000103C02402301674502
:10170000AB89EFCD00B587B0142102A8FFF78CF8A4
:101710002A48006808B107B000BD012027490860C9
:1017200000BF002001902648006840F001002449D5
:1017300008600846006800F00100019000BF00BF8B
:10174000881402900220039000200490032005904A
:101750000C20069002A91B4800F01CF94FF680707F
:1017600002900220039000200490032005900C209A
:10177000069002A9144800F00DF94CF23370029063
:101780000220039000200490032005900C20069076
:1017900002A90E4800F0FEF84FF48050029002209B
:1017A000039000200490032005900C20069002A9CD
:1017B000074800F0EFF800BFADE700000000002090
:1017C000383802400014024000100240000C024071
:1017D00000180240F0B50C4600250022002300212D
:1017E00094E0012606FA01F504EA0502AA427DD139
:1017F000484E8F0856F827308E07370F0F26BE4009
:101800003340454EB04201D1002623E0434EB04262
:1018100001D101261EE0424EB04201D1022619E05C
:10182000404EB04201D1032614E03F4EB04201D1F8
:1018300004260FE03D4EB04201D105260AE03C4EA1
:10184000B04201D1062605E03A4EB04201D107264A
:1018500000E008268F073F0FBE409E4224D1364E3F
:1018600036689643344F3E603E1D366896433F1DB2
:101870003E60314E0C36366896432F4F0C373E6033
:101880003E1F366896433F1F3E608E07370F0F2678
:1018900006FA07F31F4E8F0856F827609E431D4F28
:1018A0004FEA910C47F82C6006684FEA410C032779
:1018B00007FA0CF7BE430660CF0800F1200656F881
:1018C00027604F074FEAD76C0F2707FA0CF7BE4384
:1018D0004FEAD10C00F1200747F82C60C6684FEAA8
:1018E000410C032707FA0CF7BE4300E00DE0C66089
:1018F000466801278F40BE43466086684FEA410C28
:10190000032707FA0CF7BE438660491C1029FFF431
:1019100068AFF0BD083801400000024000040240FA
:1019200000080240000C0240001002400014024077
:1019300000180240001C0240003C014070B5054602
:10194000284603F013FC044604EB4400094901EB6C
:101950008000406858B104EB44020B4603EB82025E
:10196000906804EB440203EB82025168884700BF91
:1019700070BD00002800002010B50446044800682F
:10198000204020B1024804602046FFF7D7FF10BD79
:10199000143C0140F8B502460B4600250024002007
:1019A0000021D6E0012606FA01F51E6806EA0504C4
:1019B000AC4274D11E7906F00306012E04D01E79C4
:1019C00006F00306022E13D190684F000326BE4096
:1019D000B0434F00DE68BE4030439060506801263F
:1019E0008E40B0431E79C6F300168E4030435060DF
:1019F0001E7906F00306032E09D0D0684F00032697
:101A0000BE40B0434F009E68BE403043D0601E7958
:101A100006F00306022E13D1CF0802F1200656F875
:101A200027004E07F70E0F26BE40B0434F07FF0EAC
:101A30001E69BE403043CF0802F1200646F8270059
:101A400010684F000326BE40B0431E7906F003061F
:101A50004F00BE40304310605E6806F44036002EF2
:101A600076D000BF002600963C4E366846F480468D
:101A70003A4F3E603E46366806F48046009600BF08
:101A800000BF374E8F0856F827008E07370F0F26F6
:101A9000BE40B043334EB24202D1002624E057E0AC
:101AA000314EB24201D101261EE0304EB24201D188
:101AB000022619E02E4EB24201D1032614E02D4E2B
:101AC000B24201D104260FE02B4EB24201D10526CD
:101AD0000AE02A4EB24201D1062605E0284EB24263
:101AE00001D1072600E008268F073F0FBE40304394
:101AF0001B4E8F0846F82700224E3068A0435E68D0
:101B000006F4801606B120431E4E3060361D306844
:101B1000A0435E6806F4001606B12043194E361D38
:101B20003060184E361F3068A0435E6806F40036F9
:101B300006B12043134E361F3060361F3068A04375
:101B40005E6806F4803606B120430E4E083E3060D3
:101B5000491C1029FFF426AFF8BD000044380240AC
:101B60000838014000000240000402400008024022
:101B7000000C024000100240001402400018024015
:101B8000001C0240083C0140024613690B400BB1A7
:101B9000012000E0002070470AB1816101E00B04E0
:101BA0008361704710B510F02DFC10BD034800682C
:101BB0000349097808440149086070471C00002067
:101BC0002400002010B50D48006840F400700B4957
:101BD00008600846006840F48060086008460068B5
:101BE00040F480700860032000F0B4F8002000F09A
:101BF00007F800F009F8002010BD0000003C02408A
:101C0000014600207047704708B500BF00200090D3
:101C10000E48006840F480400C490860084600689F
:101C200000F48040009000BF00BF00BF0020009083
:101C3000081F006840F08050091F086008460068CF
:101C400000F08050009000BF00BF08BD4438024043
:101C500010B501460846002807DB00F01F030122EB
:101C60009A40034B440943F8242000BF10BD0000F4
:101C700080E200E010B501460846002817DB00F0BE
:101C80001F0301229A400B4B440943F8242000BF54
:101C900000BF00BFBFF34F8F00BF00BF00BF00BF3A
:101CA00000BF00BFBFF36F8F00BF00BF00BF00BF0A
:101CB00010BD000080E100E001460846002809DB75
:101CC00000F01F0301229A4043099B0003F1E02327
:101CD000C3F8002100BF70472DE9F05F80460D4634
:101CE0001646002702F062FD074639462A4633466B
:101CF00001F00700C0F1070ABAF1040F02D94FF052
:101D0000040A01E0C0F1070AD14600F1040ABAF161
:101D1000070F02D24FF0000A01E0A0F1030AD446F7
:101D20004FF0010A0AFA09FAAAF1010A0AEA020ABC
:101D30000AFA0CFA4FF0010B0BFA0CFBABF1010B9A
:101D40000BEA030B4AEA0B042146404602F036FD3B
:101D5000BDE8F09F00BF00F00702064B19684FF680
:101D6000FF031940044B0B4343EA0221014B196066
:101D700000BF70470CED00E00000FA05F8B504461E
:101D800000250026207800F0010020B9207800F01E
:101D9000040004282FD100205B498866FFF702FF6A
:101DA000054606E0FFF7FEFE401B022801D903208E
:101DB000F8BD56480068C0F3C0600028F2D16068E2
:101DC0008101207A41EA0070504984310860012085
:101DD0004D498866FFF7E6FE054606E0FFF7E2FE9E
:101DE000401B022801D90320E2E748480068C0F3FD
:101DF000C0600028F2D0207800F0020002287DD1D7
:101E000000BF0020009041484030006840F0805002
:101E10003E49403108600846006800F0805000905C
:101E200000BF00BF3A48006840F48070384908603D
:101E3000FFF7B8FE054606E0FFF7B4FE401B022898
:101E400001D90320B4E73248006800F4807000280C
:101E5000F2D02E487030006800F440764EB3A0896E
:101E600000F44070B04224D028487030006820F45C
:101E70004076012027490860002008602348703020
:101E80000660006800F0010098B1FFF78BFE054680
:101E900008E0FFF787FE401B41F28831884201D9F4
:101EA000032085E7194870300068C0F3400000281F
:101EB000EFD000BFA08900F44070B0F5407F0CD196
:101EC00012480830006820F4F810134AE168114005
:101ED00008430E490831086007E00C4808300068E4
:101EE00020F4F8100949083108600848703000688B
:101EF000A189C1F30B010843044900E002E07031FD
:101F0000086000BF002053E700004742003802404D
:101F100000700040400E4742FFFCFF0F70B50446C2
:101F20000D460CB9012070BD5848006800F007004C
:101F3000A84209D255490D700846006800F0070014
:101F4000A84201D00120EEE7207800F0020002282C
:101F50001DD1207800F00400042805D14C48006809
:101F600040F4E0504A490860207800F00800082852
:101F700005D14748006840F460404549086044483E
:101F8000006820F0F000A16808434149086020780B
:101F900000F00100A8B36068012807D13C48083868
:101FA0000068C0F34040B8B90120BCE7606802286F
:101FB00002D06068032807D1354808380068C0F3AC
:101FC000406048B90120AEE7314808380068C0F3E6
:101FD000400008B90120A6E72D48006820F0030062
:101FE000616808432A490860FFF7DCFD064609E0FE
:101FF000FFF7D8FD801B41F28831884202D90320C7
:1020000091E707E02248006800F00C006168B0EB3F
:10201000810FEDD11D48006800F00700A84209D9E2
:102020001A490D700846006800F00700A84201D068
:10203000012078E7207800F00400042807D1144834
:10204000006820F4E050E1680843114908602078F6
:1020500000F00800082808D10D48006820F460400E
:10206000216940EAC1000A49086000F0FFF8084908
:102070000968C1F30311074A515CC840064908606A
:1020800006480068FFF7BCFD00204CE7003C02401A
:1020900008380240E2650108080000202000002006
:1020A00010B5FFF77FFD04465748006840F0010077
:1020B0005549086006E0FFF775FD001B022801D9AD
:1020C000032010BD5048006800F002000028F2D044
:1020D0004D48006840F080004B490860FFF762FD02
:1020E0000446002048490831086008E0FFF75AFD1F
:1020F000001B41F28831884201D90320E1E74248C0
:102100000830006800F00C000028EFD1FFF74AFD0E
:1021100004463D48006820F450203B49086006E032
:10212000FFF740FD001B642801D90320C9E73648AA
:10213000006800F400300028F2D1FFF733FD0446B8
:102140003148006820F080702F49086006E0FFF7F2
:1021500029FD001B022801D90320B2E72A480068A4
:1021600000F000700028F2D1FFF71CFD044626485D
:10217000006820F080602449086006E0FFF712FD47
:10218000001B022801D903209BE71F48006800F0CC
:1021900000600028F2D11D481B49091D08601C4839
:1021A00019498431086018480C30006820F4F85050
:1021B00015490C3108600846006820F4005008609A
:1021C0000846006840F41F0008600846006840F4B4
:1021D000001008600C487430006820F001000A49C3
:1021E000743108600846006840F080700860094853
:1021F0000949086009480068FFF702FD08B101209D
:102200005FE700205DE70000003802401030000466
:10221000003000200024F4000800002020000020EE
:1022200001480068704700000800002000B5FFF773
:10223000F7FF04490968C1F38221034A515CC84091
:1022400000BD000008380240F265010800B5FFF744
:10225000E7FF04490968C1F34231034A515CC840B1
:1022600000BD000008380240F26501082DE9F04782
:10227000002400250026A1462548006800F00C0037
:1022800020B1042805D008283AD105E0DFF8849071
:1022900039E0DFF8849036E01D48001F006800F048
:1022A0003F041B48001F006800F4800078B11A4802
:1022B0001749091F0968C1F38811A0FB0170014685
:1022C000224600233846FEF799F805460EE01148ED
:1022D0000F49091F0968C1F38811A0FB017001466D
:1022E000224600233846FEF789F805460848001FB5
:1022F0000068C0F30140401C4600B5FBF6F902E05F
:10230000DFF8109000BF00BF4846BDE8F08700002E
:10231000083802400024F40000127A00F8B50446A0
:102320000CB90120F8BD207800F00100002874D01D
:10233000F948006800F00C0004280DD0F648006849
:1023400000F00C00082813D1F348001F006800F4C7
:102350008000B0F5800F0BD1EF4808380068C0F35B
:102360004040002859D06068002856D10120D9E7A4
:1023700000BF6068B0F5803F08D1E74808380068C2
:1023800040F48030E449083908601EE06068B0F528
:10239000A02F0DD1E0480838006840F48020DE49C5
:1023A000083908600846006840F4803008600CE096
:1023B000D9480838006820F48030D74908390860C7
:1023C0000846006820F48020086000BF606890B173
:1023D000FFF7E8FB054606E0FFF7E4FB401B642837
:1023E00001D903209EE7CC4808380068C0F340407C
:1023F0000028F1D011E0FFF7D5FB054606E0FFF716
:10240000D1FB401B642801D903208BE7C248083860
:102410000068C0F340400028F1D1207800F00200AD
:1024200002285FD1BC48006800F00C0058B1BA48DF
:10243000006800F00C0008281CD1B748001F006895
:1024400000F48000B0B9B44808380068C0F3400018
:1024500020B1E068012801D0012063E7AE480838C8
:10246000006820F0F800216940EAC100AA49083953
:10247000086037E0E06800B30120A8490860FFF772
:1024800091FB054606E0FFF78DFB401B022801D9B2
:10249000032047E7A04808380068C0F34000002840
:1024A000F1D09D480838006820F0F800216940EA22
:1024B000C10099490839086014E000209749086074
:1024C000FFF770FB054606E0FFF76CFB401B022898
:1024D00001D9032026E7904808380068C0F340007F
:1024E0000028F1D1207800F0080008282CD160697C
:1024F000A8B101208A490860FFF754FB054606E0B1
:10250000FFF750FB401B022801D903200AE782484D
:102510006C300068C0F340000028F1D014E00020C7
:102520007F490860FFF73EFB054606E0FFF73AFBF0
:10253000401B022801D90320F4E677486C3000687C
:10254000C0F340000028F1D1207800F004000428F6
:1025500070D1002770483830006800F0805090B982
:1025600000BF002000906C483830006840F0805078
:102570006949383108600846006800F080500090D2
:1025800000BF00BF01276748006800F48070B0B941
:102590006448006840F4807062490860FFF702FBFD
:1025A000054606E0FFF7FEFA401B022801D903208A
:1025B000B8E65C48006800F480700028F2D000BFE4
:1025C000A068012808D154486830006840F0010034
:1025D0005149683108601DE0A06805280DD14E48BA
:1025E0006830006840F004004B49683108600846D4
:1025F000006840F0010008600CE04748683000685F
:1026000020F001004449683108600846006820F065
:102610000400086000BFA068A8B1FFF7C3FA054630
:1026200009E0FFF7BFFA401B41F28831884202D926
:10263000032077E626E0384868300068C0F34000A1
:102640000028EED013E0FFF7ADFA054608E0FFF7EB
:10265000A9FA401B41F28831884201D9032061E682
:102660002D4868300068C0F340000028EFD1012FEA
:1026700007D129483830006820F080502649383189
:10268000086000BFA069002845D02348006800F01A
:102690000C0008285DD0A069022845D100201F4900
:1026A0000866FFF77FFA054606E0FFF77BFA401B56
:1026B000022801D9032035E6174808380068C0F31E
:1026C00040600028F1D1D4E907010843616A40EA7B
:1026D00081110122A06AC2EB500041EA00412C2086
:1026E000005D41EA00600C49091F086001200B49A8
:1026F0000866FFF757FA054606E0FFF753FA401B56
:10270000022801D903200DE6034808380068C0F309
:1027100040600028F1D049E00838024000004742FC
:10272000800E474200700040002021490866FFF7F4
:1027300039FA054606E0FFF735FA401B022801D9B1
:102740000320EFE51B480068C0F340600028F2D189
:102750002CE0A069012800D1E4E51648001D0668B8
:10276000A069012820D006F48001E06981421BD1D4
:1027700006F03F01206A814216D147F6C070304012
:10278000616AB0EB811F0FD106F440310122A06ACB
:10279000C2EB5000B1EB004F06D106F070612C2067
:1027A000005DB1EB006F01D00120BBE50020B9E571
:1027B00000004742003802407047014691F851003E
:1027C00070470000F8B504462068466820688568B0
:1027D000C5F3801048B905F0010030B1C6F3801090
:1027E00018B12046216C8847F8BDC5F3400030B1D0
:1027F000C6F3C01018B12046616C8847F4E7C5F3F2
:10280000401030B9C5F3801018B9C5F30020002876
:102810007CD0C6F3401000287DD0C5F38010F0B105
:1028200094F8510003280ED0606D40F004006065FC
:1028300000BF002000902068C06800902068806879
:10284000009000BF0BE000BF002000902068C0682F
:10285000009020688068009000BF00BFC4E7C5F307
:10286000401088B1606D40F00100606500BF00203D
:1028700000902068806800902068006820F0400088
:102880002168086000BF00BFC5F3002058B1606D2B
:1028900040F00800606500BF00200090206880685C
:1028A000009000BF00BF606D78B32068406820F0E2
:1028B000E00021684860012084F8510006F0020021
:1028C000022802D006F0010008B32068406820F01A
:1028D000030021684860E06C50B11048E16C086565
:1028E000E06CFEF733FC18B1606D40F040006065AD
:1028F000A06C50B10948A16C0865A06CFEF726FCDD
:1029000018B1606D40F04000606503E003E02046D0
:10291000FFF752FF68E700BF66E70000593F000875
:1029200010B504460CB9012010BD606A38B9606862
:10293000B0F5827F00D105E00021E16102E00021D5
:10294000216161610021A16294F8510028B9002041
:1029500084F85000204600F047F8022084F8510027
:102960002068006820F0400021680860A08800F41A
:102970008270218901F404410843A18901F40061B6
:102980000843217C01F002010843217D01F001018F
:102990000843218B01F400710843217F01F03801C5
:1029A00008432021095D01F080010843218D01F4D5
:1029B00000510843216808600421A06901EA104021
:1029C00094F8241001F01001084321684860206841
:1029D000C06920F400602168C861002060650120A2
:1029E00084F8510000209FE710B586B004461421FA
:1029F00001A8FDF719FF1F492068884237D100BFA1
:102A0000002000901C48006840F480501A4908607B
:102A10000846006800F48050009000BF00BF00BF6F
:102A20000020009014481438006840F00200124959
:102A3000143908600846006800F00200009000BFEA
:102A400000BF382001900220029000200390032054
:102A500004900520059001A90848FEF79BFF00227D
:102A600011462320FFF738F92320FFF725F906B098
:102A700010BD000000300140443802400004024014
:102A80002DE9F8430446884616461D464FF00009D6
:102A90006068B0F5827F0DD1A06858B9042084F831
:102AA00051003346424641462046009500F007FA61
:102AB000BDE8F88300BF94F85000012801D102203E
:102AC000F6E7012084F8500000BFFFF76BF80746D7
:102AD00094F85100012802D04FF002097EE0B8F1CD
:102AE000000F00D016B94FF0010977E0042084F8F8
:102AF000510000206065C4F83880A687E68720630F
:102B0000A086E08620646064A068B0F5004F0BD119
:102B10002068006820F04000216808602068006894
:102B200020F48040216808602068006800F04000C0
:102B3000402805D02068006840F040002168086007
:102B4000E068F8B91AE02068806800F0010050B130
:102B50002068007BA16B0870A06B401CA063E08F15
:102B6000401EE0870AE0FFF71DF8C01BA84201D312
:102B7000681C00B915B94FF003092FE0E08F002859
:102B8000E1D11EE01AE02068806800F0010050B139
:102B90002068C068A16B0880A06B801CA063E08FD8
:102BA000401EE0870AE0FEF7FDFFC01BA84201D3EC
:102BB000681C00B915B94FF003090FE0E08F002839
:102BC000E1D13A462946204601F0ABFA08B120206F
:102BD0006065606D08B14FF0010900BF012084F805
:102BE000510000BF002084F8500000BF48465FE756
:102BF0002DE9F04104460E4615460027A06870B93D
:102C00006068B0F5827F0AD1042084F851002B4619
:102C100032463146204600F067FABDE8F08100BF39
:102C200094F85000012801D10220F6E7012084F831
:102C3000500000BF94F85100012801D0022757E04E
:102C400006B10DB9012753E0042084F8510000209B
:102C50006065A663A587E58720646064A086E0863A
:102C6000A068B0F5004F0BD12068006820F040004C
:102C7000216808602068006820F4804021680860AE
:102C80001F48E16C08641F48E16CC8631E48E16C92
:102C9000C8640020E16C0865E38FD4F800C00CF133
:102CA0000C01A26BE06CFEF7FBFB40B1606D40F0E5
:102CB000100060650127012084F8510018E02068A9
:102CC000006800F04000402805D02068006840F00F
:102CD0004000216808602068406840F020002168BA
:102CE00048602068406840F001002168486000BFEB
:102CF00000BF002084F8500000BF38468DE7000078
:102D0000953F0008BF3F00086D3F000870477047BF
:102D10002DE9F84F0446884616461D464FF0000A36
:102D200000BF94F85000012802D10220BDE8F88FBE
:102D3000012084F8500000BFFEF734FF0746B1467B
:102D400094F85100012802D04FF0020AADE0B8F12A
:102D5000000F00D016B94FF0010AA6E0032084F856
:102D6000510000206065C4F83080A686E686A06326
:102D7000A087E08760642064A068B0F5004F0BD1A5
:102D80002068006820F04000216808602068006822
:102D900040F48040216808602068006800F040002E
:102DA000402805D02068006840F040002168086095
:102DB000E068B0F5006F2FD1606810B1B9F1010F74
:102DC00009D1206B00882168C860206B801C2063BB
:102DD000E08E401EE0861BE02068806800F0020064
:102DE00002280AD1206B00882168C860206B801CF3
:102DF0002063E08E401EE0860AE0FEF7D3FEC01B93
:102E0000A84201D3681C00B915B94FF0030A4CE081
:102E1000E08E0028E0D12EE0606810B1B9F1010F1A
:102E200009D1206B007821680873206B401C206357
:102E3000E08E401EE0861BE02068806800F0020003
:102E400002280AD1206B007821680873206B401C8F
:102E50002063E08E401EE0860AE0FEF7A3FEC01B62
:102E6000A84201D3681C00B915B94FF0030A1CE051
:102E7000E08E0028E0D13A462946204601F09CF930
:102E800008B120206065A06850B900BF0020009004
:102E90002068C068009020688068009000BF00BF74
:102EA000606D08B14FF0010A00BF012084F85100A5
:102EB00000BF002084F8500000BF504636E72DE9DF
:102EC000FF5F0446884691461D460E9E01200290F3
:102ED0000020019000BF94F85000012803D1022087
:102EE00004B0BDE8F09F012084F8500000BFFEF759
:102EF00059FE074694F851B060680390AA46BBF1AA
:102F0000010F0BD00398B0F5827F04D1A06810B9EF
:102F1000BBF1040F02D002200190DBE0B8F1000FFA
:102F200003D0B9F1000F00D015B901200190D1E014
:102F300094F85100042802D0052084F851000020A4
:102F40006065C4F83890E587A587C4F83080E586C9
:102F5000A586206460642068006800F04000402876
:102F600005D02068006840F0400021680860E068F3
:102F7000B0F5006F4AD1606810B1BAF1010F09D104
:102F8000206B00882168C860206B801C2063E08E65
:102F9000401EE08633E02068806800F002000228CE
:102FA00010D1E08E70B1029801280BD1206B0088FF
:102FB0002168C860206B801C2063E08E401EE08684
:102FC000002002902068806800F0010068B1E08F66
:102FD00058B12068C068A16B0880A06B801CA063FA
:102FE000E08F401EE08701200290FEF7DBFDC01B52
:102FF000B04204D3701C10B1032001906AE0E08E4F
:103000000028C8D1E08F0028C5D14AE0606810B11F
:10301000BAF1010F09D1206B007821680873206B89
:10302000401C2063E08E401EE08634E0206880680B
:1030300000F00200022810D1E08E70B10298012841
:103040000BD1206B007821680873206B401C206333
:10305000E08E401EE086002002902068806800F02C
:10306000010068B1E08F58B12068C068A16B08709A
:10307000A06B401CA063E08F401EE08701200290FF
:10308000FEF790FDC01BB04201D3701C00B916B909
:10309000032001901EE0E08E0028C7D1E08F0028B9
:1030A000C4D13A463146204601F086F820B10120CD
:1030B0000190202060650DE0A06850B900BF00209D
:1030C00000902068C068009020688068009000BF71
:1030D00000BF00BF012084F8510000BF002084F829
:1030E000500000BF0198FBE62DE9F04704460E466C
:1030F00017461D464FF0000A00BF94F85000012803
:1031000002D10220BDE8F087012084F8500000BF02
:1031100094F85180D4F80490B8F1010F0AD0B9F5B1
:10312000827F04D1A06810B9B8F1040F02D04FF02B
:10313000020A7DE00EB107B115B94FF0010A77E040
:1031400094F85100042802D0052084F85100002092
:1031500060652663A586E586A763A587E587206465
:10316000606494F85100042806D13548E16C086485
:103170003448E16CC86305E03348E16C08643348C7
:10318000E16CC8633248E16CC8640020E16C0865FA
:10319000E38FD4F800C00CF10C01A26BE06CFEF7D9
:1031A0007FF948B1606D40F0100060654FF0010A92
:1031B000012084F851003BE02068406840F00100A5
:1031C000216848600020A16C0864A16CC863A16CF0
:1031D000C864A16C0865E38ED4F800C00CF10C0241
:1031E000216BA06CFEF75CF948B1606D40F01000F7
:1031F00060654FF0010A012084F8510018E0206852
:10320000006800F04000402805D02068006840F0C9
:103210004000216808602068406840F02000216874
:1032200048602068406840F002002168486000BFA4
:1032300000BF002084F8500000BF504662E7000045
:10324000953F0008BF3F0008B13F0008BB400008A1
:103250006D3F00082DE9F04104460E461546002753
:1032600000BF94F85000012802D10220BDE8F0818F
:10327000012084F8500000BF94F85100012801D0CB
:10328000022758E006B10DB9012754E0032084F865
:103290005100002060652663A586E586A063606412
:1032A0002064A087E087A068B0F5004F0BD12068AC
:1032B000006820F04000216808602068006840F441
:1032C0008040216808601F48A16C08641E48A16CFA
:1032D000C8631E48A16CC8640020A16C0865E38E19
:1032E000D4F800C00CF10C02216BA06CFEF7D8F8EA
:1032F00040B1606D40F0100060650127012084F846
:10330000510018E02068006800F04000402805D017
:103310002068006840F0400021680860206840682C
:1033200040F02000216848602068406840F00200BA
:103330002168486000BF00BF002084F8500000BF33
:10334000384693E7A33F00083B4000086D3F000864
:10335000704770477047704770B504460E46154673
:103360000CB9012070BD94F8490028B9002084F8F8
:103370004800204600F020F804F108012068FDF71D
:103380000FFE3146A2682068FDF746FE2946236BF2
:10339000D4E90102FDF7E2FDA168206850F82100A0
:1033A00040F00100A268216841F82200012084F861
:1033B00049000020D6E7000010B586B0044614216D
:1033C00001A8FDF731FA00BF0020009026480068F0
:1033D00040F00100244908600846006800F0010040
:1033E000009000BF00BF4FF23F000190022002900A
:1033F00000200390032004900C20059001A91B4895
:10340000FEF7C8FA40F23F400190022002900020EF
:103410000390032004900C20059001A91448FEF7A6
:10342000B9FA4FF6837001900220029000200390B9
:10343000032004900C20059001A90E48FEF7AAFA7B
:103440004FF6337001900220029000200390032079
:1034500004900C20059001A90748FEF79BFAFEF79F
:1034600051F906B010BD0000383802400014024087
:103470000018024000100240000C0240042808D14D
:103480004FF0E021096941F004014FF0E0221161A1
:1034900007E04FF0E021096921F004014FF0E0223C
:1034A0001161704770B504462546681EB0F1807FF3
:1034B00001D301200FE0681E4FF0E02148610F2189
:1034C0004FF0FF3001F07AF900204FF0E0218861E1
:1034D00007200861002070BD10B504460CB901201A
:1034E00010BD242084F83D002068C06820F40050FE
:1034F0002168C860204600F047F80020206484F866
:103500003D0084F83E00206300BF84F83C0000BF0B
:1035100000BFE5E7704710B504460CB9012010BDA7
:10352000A06900B100E000BF94F83D0028B9002078
:1035300084F83C00204600F043F8242084F83D0045
:103540002068C06820F400502168C860204601F05F
:1035500009F82068006920F490402168086120681B
:10356000406920F02A00216848612068C06840F462
:1035700000502168C86000202064202084F83D00AD
:1035800084F83E000020CAE710B5044609492068C7
:1035900088420DD10848006820F0100006490860F4
:1035A0004FF4C0610548FEF715F92520FEF762FBD0
:1035B00010BD0000001001404438024000000240ED
:1035C00010B586B00446142101A8FDF72DF91F4956
:1035D0002068884238D100BF002000901C48006855
:1035E00040F010001A4908600846006800F010001A
:1035F000009000BF00BF00BF0020009014481438A6
:10360000006840F00100124914390860084600685B
:1036100000F00100009000BF00BF4FF4C0600190B7
:1036200002200290002003900320049007200590C0
:1036300001A90848FEF7AEF9002211462520FEF741
:103640004BFB2520FEF738FB06B010BD00100140F3
:103650004438024000000240F7B50446154694F88D
:103660003D00202846D1019800B10DB90120FEBDD2
:1036700000BF94F83C00012801D10220F7E70120A7
:1036800084F83C0000BF01982062A584E5840020F6
:103690002064212084F83D001748616BC8631748F7
:1036A000616B08641648616BC8640020616B086533
:1036B00001AE23681A1D31682B46606BFDF7F0FEE2
:1036C0006FF040002168086000BF002084F83C00D3
:1036D00000BF00BF00BF2168143151E8001F41F056
:1036E00080002168143141E80002002AF3D100BFB4
:1036F0000020BCE70220BAE76D440008C54400087A
:103700001D440008704770472DE9F04105460E46FC
:1037100017461C46B9B2B0B200F056FB00F0FCFBF5
:10372000A84606E0B8F8000004490880641E08F1C5
:103730000208002CF6D1BDE8F08100008000006C8A
:1037400070B5044600260948058840884543002195
:10375000084600F039FB00F0DFFB00BF02E004493F
:103760000C80761CAE42FAD370BD00003C050020F0
:103770008000006C10B5044655488471002C51D16E
:10378000F020534908804FF4A07048800846808894
:1037900049F24131884205D04D48808845F21031C8
:1037A000884214D12C204A4908812A2048812B20A4
:1037B00088810846808845F21031884206D14FF44E
:1037C000A070434908804FF4F07048807BE0404887
:1037D000808845F21051884210D14FF430503C4956
:1037E00008814FF4285048814FF42C5088814FF4C1
:1037F000F07008804FF44870488064E03448808856
:1038000041F6631188425ED12C20314908812B207A
:1038100048812A2088814FF4F07008804FF4487066
:10382000488050E04FF4A07029490880F02048807B
:103830000846808849F24131884205D02448808872
:1038400045F21031884207D12C20214908812A20D5
:1038500048812B20888129E01D48808845F210513D
:10386000884210D14FF43050194908814FF4285044
:1038700048814FF42C5088814FF4487008804FF4F1
:10388000F070488012E01248808841F66311884247
:103890000CD12C200E4908812A2048812B208881B8
:1038A0004FF4487008804FF4F070488008488088D2
:1038B00045F21031884206D14FF4F0700449088077
:1038C0004FF4A0704880002000F044F910BD0000C3
:1038D0003C05002030B504460B46258842488088C8
:1038E00049F24131884205D03F48808845F2103185
:1038F000884216D13C49488900F008FBC3F30F20E9
:1039000000F0FEFAD8B200F0FBFA3749888900F0DF
:10391000FDFAC2F30F2000F0F3FAD0B200F0F0FA93
:1039200059E03148808845F21051884222D12E4911
:10393000488900F0EBFAC3F30F2000F0E1FA2A49BE
:103940004989491C88B200F0E1FAD8B200F0D8FAEF
:103950002549888900F0DAFAC2F30F2000F0D0FA86
:1039600021498989491C88B200F0D0FAD0B200F010
:10397000C7FA30E01C48808841F6631188422AD19A
:103980001948807918B918480088401EC31A16498A
:10399000488900F0BBFAC3F30F2000F0B1FAD8B2A7
:1039A00000F0AEFAC3F30F2000F0AAFAD8B200F08C
:1039B000A7FA0D49888900F0A9FAC2F30F2000F098
:1039C0009FFAD0B200F09CFAC2F30F2000F098FAF0
:1039D000D0B200F095FA04480089044908804FF0FD
:1039E000D840A0F8805030BD3C0500207E00006C1F
:1039F0002DE9F04305460C4616461F46301B00F1E4
:103A00000108B9B2A0B200F0DFF900F085FAA946CA
:103A100005E0B9F8000004490880A8F10108B8F1F0
:103A2000000FF6DCBDE8F0838000006C01480088E0
:103A3000704700008000006C2DE9F04780460C467E
:103A4000154646460027B946BA4629480088A0428E
:103A500003DD27484088A84203DC00203080BDE811
:103A6000F087A9B2A0B200F0AFF92148808849F2EE
:103A7000413188420BD01E48808845F2103188427F
:103A800005D01B48808841F66311884203D12E205F
:103A900000F03CFA09E01648808845F2105188424F
:103AA00003D14FF4385000F031FAFFF7BFFF07465B
:103AB0000F48808841F66311884201D13780CEE7F4
:103AC000FFF7B4FF0746FFF7B1FF824607F0FF0993
:103AD0004FF6FF7000EA0929F812C0024FEAA92147
:103AE00040EA411040EAEA20308000BFB7E700001A
:103AF0003C05002070B52DED048B0446BE2000F07F
:103B000005FA052000F0FCF9204612F054FC41ECC7
:103B1000190B9FED0E0B53EC102B12F05FFC41ECD8
:103B2000180B12F01BFC85B2284600F0E9F90120C1
:103B300000F0E6F9FF2000F0E3F9002000F0E0F9E2
:103B4000002000F0DDF9BDEC048B70BD6666666692
:103B50006666044070B504460023002699488079C3
:103B6000012805D19748808841F66311884208D121
:103B700094488079F0B99348808841F6631188426F
:103B800018D1082C15D2DFE804F00406080A0C0E40
:103B9000101206240DE007240BE0042409E005249C
:103BA00007E0012405E0002403E0032401E00224EF
:103BB00000BF00BF8348808849F24131884211D05C
:103BC0008048808845F2103188420BD07D4880883B
:103BD00045F21051884205D07A48808841F6631139
:103BE00088427DD1082C1CD2DFE804F00406090CC1
:103BF0000F12151800BF14E043F0800311E043F0EA
:103C000040030EE043F0C0030BE043F0200308E064
:103C100043F0600305E043F0A00302E043F0E0035B
:103C200000BF00BF6748808845F21051884202D12A
:103C30004FF4585600E036266248808845F210312D
:103C400088420DD05F48808845F21051884207D0E5
:103C50005C48808841F66311884201D043F0080334
:103C60001946304600F062F95648808841F66311E3
:103C700088421DD003F0200068B1524800885149A5
:103C80004988884214DA4F48058840884D490880A1
:103C9000084645800CE04B4800884A4949888842DC
:103CA00006DD484805884088464908800846458022
:103CB0004448808845F21051884254D1414948898E
:103CC00000F024F9002000F01BF93E494989491C05
:103CD00088B200F01BF9002000F012F9394900E029
:103CE0006FE04989891C88B200F010F935490988CC
:103CF000491EC1F30F2000F003F932494989C91C5C
:103D000088B200F003F92F490978491EC8B200F0C3
:103D1000F7F82C49888900F0F9F8002000F0F0F855
:103D200028498989491C88B200F0F0F8002000F089
:103D3000E7F824498989891C88B200F0E7F821490D
:103D40004988491EC1F30F2000F0DAF81D4989891E
:103D5000C91C88B200F0DAF81A498978491EC8B23D
:103D600000F0CEF82DE01749488900F0CFF8002088
:103D700000F0C6F8002000F0C3F812490988491E77
:103D8000C1F30F2000F0BCF80E490978491EC8B2F3
:103D900000F0B6F80B49888900F0B8F8002000F070
:103DA000AFF8002000F0ACF806494988491EC1F37D
:103DB0000F2000F0A5F803498978491EC8B200F029
:103DC0009FF870BD3C05002000B502460B464B48ED
:103DD000808849F24131884205D04848808845F2C0
:103DE0001031884214D14549488900F08FF81012EB
:103DF00000F086F8D0B200F083F84049888900F0DE
:103E000085F8181200F07CF8D8B200F079F873E069
:103E10003A48808841F66311884247D13748807913
:103E2000A8B936480088401E801A82B233494889B2
:103E300000F06CF8002000F063F8002000F060F85B
:103E4000101200F05DF8D0B200F05AF816E02B49DD
:103E5000488900F05BF8101200F052F8D0B200F080
:103E60004FF826490988491EC1F30F2000F048F891
:103E700022490978491EC8B200F042F81F498889D2
:103E800000F044F8181200F03BF8D8B200F038F80F
:103E90001A494988491EC1F30F2000F031F817492B
:103EA0008978491EC8B200F02BF825E013488088B5
:103EB00045F2105188421FD11049488900F026F878
:103EC000101200F01DF80D494989491C88B200F014
:103ED0001DF8D0B200F014F80849888900F016F8EF
:103EE000181200F00DF805498989491C88B200F0C4
:103EF0000DF8D8B200F004F800BD00003C05002029
:103F000001490880704700008000006C014908806A
:103F1000704700007E00006C02480089024908805A
:103F2000704700003C0500207E00006C034A1080B2
:103F30004FF0D842A2F88010704700007E00006C5D
:103F400010B50BF0A7FA0348FEF73CFC0BF0CCFAD7
:103F500010BD00000803002070B50546AC6B0020C2
:103F6000E087E0862046FEF727FC70BD70B5054669
:103F7000AC6B2068406820F0030021684860606DE9
:103F800040F010006065012084F851002046FEF7E3
:103F900013FC70BD70B50446A56B2846FEF7B7FE4E
:103FA00070BD70B50446A56B2846FFF7D2F970BD09
:103FB00070B50446A56B2846FFF7CDF970BD70B506
:103FC0000546AC6BFDF7EEFD06462868006800F478
:103FD0008070B0F5807F2BD02068406820F02000F2
:103FE00021684860A06850B96068B0F5827F06D14A
:103FF0002068406820F003002168486005E02068E0
:10400000406820F001002168486032466421204663
:1040100000F087F808B1202060650020E0870120CB
:1040200084F85100606D18B12046FEF7C5FB70BDE5
:104030002046FEF76BFE00BFF9E7F8B50546AC6B0E
:10404000FDF7B0FD06462868006800F48070B0F502
:10405000807F2DD02068406820F0200021684860D3
:104060002068406820F002002168486032466421E0
:10407000204600F0A1F818B1606D40F020006065A6
:10408000A06850B900BF002000902068C068009070
:1040900020688068009000BF00BF0020E0860120FB
:1040A00084F85100606D18B12046FEF785FBF8BD1D
:1040B0002046FFF74DF900BFF9E770B50546AC6B38
:1040C000FDF770FD06462868006800F48070B0F5C2
:1040D000807F21D02068406820F02000216848605F
:1040E00032466421204600F067F818B1606D40F058
:1040F000200060652068406820F003002168486067
:104100000020E086E087012084F85100606D18B13E
:104110002046FEF751FB70BD2046FFF71BF900BF9C
:10412000F9E7F8B504460E4615466068B0F5827F9B
:104130000DD1A068B0F5004F03D0A068B0F5806F36
:1041400005D12068006820F04000216808606068A0
:10415000B0F5827F1FD1A068B0F5806F0DD03346D7
:10416000002280212046009500F05CF808B3606DC5
:1041700040F0200060650320F8BD33460022012195
:104180002046009500F04EF898B1606D40F0200098
:1041900060650320F0E733460022012120460095A8
:1041A00000F040F828B1606D40F020006065032009
:1041B000E2E70020E0E700007CB504460D46164625
:1041C000164800681821B0FBF1F01549B0FBF1F07A
:1041D0004FF47A71484301906068B0F5827F0DD149
:1041E0002B46002280212046009600F01BF898B153
:1041F000606D40F02000606503207CBD00BF019829
:1042000000B908E00198401E019020688068C0F362
:10421000C0100028F3D100BF0020EEE70800002006
:1042200040420F002DE9F84F04460D4690461E46C9
:10423000DDF82890FDF7B6FCA0EB0900371AFDF772
:10424000B1FC82462C480068C0F3CB307843009024
:1042500045E0701C002842D0FDF7A4FCA0EB0A004A
:10426000B84200D2A7BB2068406820F0E000216877
:1042700048606068B0F5827F0DD1A068B0F5004F4E
:1042800003D0A068B0F5806F05D12068006820F0E9
:10429000400021680860A06AB0F5005F0DD100BF42
:1042A0002068006820F400502168086020680068D9
:1042B00040F400502168086000BF012084F85100DC
:1042C00000BF002084F8500000BF0320BDE8F88F35
:1042D000FFE7009800B900270098401E0090206872
:1042E00080682840A84201D1012000E0002040451C
:1042F000AFD10020EAE700000800002010B50BF065
:10430000C9F8FDF753FC0EF081F80BF0EDF810BD85
:1043100000B597B030210BA8FCF786FA142106A847
:10432000FCF782FA0020029003900490059000BFF1
:1043300001902E48006840F080502C4908600846E3
:10434000006800F08050019000BF00BF00BF002057
:1043500001902748006840F48040254908600846DD
:10436000006800F48040019000BF00BF0D200B905A
:104370004FF480300C9001200D901090022011908D
:104380004105129104211391A82114910221159144
:10439000072116910BA8FDF7C1FF18B1262115A022
:1043A00000F002FA0F2006900220079000200890EB
:1043B0004FF4A05009904FF480500A90052106A8B0
:1043C000FDF7ACFD18B133210AA000F0EDF9022091
:1043D0000290C001059002A8FDF7D0FC18B1392168
:1043E00004A000F0E1F917B000BD00004038024021
:1043F000007000402E2E5C626F6172645C626F61BF
:1044000072642E63000000000348006840F47000EE
:10441000014908607047000088ED00E070B506466D
:104420000025B46B20684069C0F3C01594F83D00C6
:10443000212805D125B10020E084204600F07FF836
:1044400020684069C0F3801594F83E00222805D109
:1044500025B10020E085204600F03BF8206C40F0BC
:10446000100020642046FFF755F870BD70B5054672
:10447000AC6B2868006800F48070F8B90020E08414
:1044800000BF00BF2168143151E8001F21F08000F7
:104490002168143141E80002002AF3D100BF00BFB7
:1044A00000BF21680C3151E8001F41F04000216835
:1044B0000C3141E80002002AF3D102E02046FFF768
:1044C00021F970BD70B50446A56B2846FFF71BF9AE
:1044D00070BD00BF00BF02680C3252E8002F22F40A
:1044E000907102680C3242E80013002BF3D100BF38
:1044F00000BF00BF0268143252E8002F22F0010111
:104500000268143242E80013002BF3D100BF016BA4
:1045100001290ED100BF00BF02680C3252E8002F03
:1045200022F0100102680C3242E80013002BF3D194
:1045300000BF202180F83E1000210163704700BFBA
:1045400000BF02680C3252E8002F22F0C00102685E
:104550000C3242E80013002BF3D100BF202180F879
:104560003D1070472DE9F84F04462068006920F49B
:104570004050E1680843216808612169A068084348
:1045800061690843E169084300902068C06849F206
:104590000C618843009908432168C860206840691D
:1045A00020F44070A1690843216848617649206879
:1045B000884203D075492068884203D1FDF746FE42
:1045C000814602E0FDF732FE8146E069B0F5004F1A
:1045D0006CD102206168A0FB015003461920A9FBA1
:1045E000007001462A463846FBF708FF6421B0FBFD
:1045F000F1F04FEA001A02206168A0FB01510B465E
:104600001920A9FB00712A463846FBF7F7FE8346BE
:1046100002206168A0FB015003461920A9FB00712C
:104620002A463846FBF7EAFE6421B0FBF1F000EBC6
:10463000C00101EB0010ABEB8000322101EBC000A8
:104640006421B0FBF1F000F0F8000AEB400A022010
:104650006168A0FB015003461920A9FB00700146C8
:104660002A463846FBF7CAFE834602206168A0FB53
:10467000015003461920A9FB00712A463846FBF772
:10468000BDFE6421B0FBF1F000EBC00101EB0010B6
:10469000ABEB8000322101EBC0006421B0FBF1F0F4
:1046A00000F007005044216888606AE004206168D7
:1046B000A0FB015003461920A9FB007001462A46C1
:1046C0003846FBF79BFE824604206168A0FB015040
:1046D00003461920A9FB007001462A463846FBF71D
:1046E0008DFE6421B0FBF1F000EBC00101EB001086
:1046F000AAEB8000322101EB00106421B0FBF1F045
:1047000000F0F00A04206168A0FB01700346192044
:10471000A9FB00513A462846FBF770FE6421B0FB26
:10472000F1F00AEB001A04206168A0FB01510B466E
:104730001920A9FB00712A463846FBF75FFE834625
:1047400004206168A0FB015003461920A9FB0070FA
:1047500001462A463846FBF751FE6421B0FBF1F0D2
:1047600000EBC00101EB0010ABEB8000322101EB4C
:1047700000106421B0FBF1F000F00F0050442168FC
:104780008860BDE8F88F000000100140001401406F
:1047900010B50AF07FFE034811F01EFC0AF0A4FEDB
:1047A00010BD0000E804002000BFFEE702480068DA
:1047B000C0F30220704700000CED00E010B50028A7
:1047C00004DB0A07130E054A135406E00A07140E09
:1047D000034A00F00F031B1FD45410BD00E400E097
:1047E00018ED00E070B5044606480068FBF744FD8C
:1047F000451E054850F83500A0F1140625603046E6
:1048000070BD000070020020D80C00202DE9F0439C
:104810008BB005468946174600242DB94FF49B728C
:104820001C491DA009F078FB2FB940F23712194935
:104830001AA009F071FB00E0641C285D202804D058
:10484000285D092801D04C45F6D324B94FF0FF303C
:104850000BB0BDE8F0832146284606F011FA064663
:1048600016B94FF0FF30F3E7282101A8FBF7DCFF72
:1048700001AA4946284606F073FA8046B8F1000FAF
:1048800002D14FF0FF30E3E701A94046B04738605E
:104890000020DDE7F49A0108636D640072657470AE
:1048A000000000002DE9F0410546884616462F46D7
:1048B00027B93722084909A009F02EFB34461CB954
:1048C0004FF0FF30BDE8F08162882188386C0368C2
:1048D000284698470020F5E74F68010870696E2068
:1048E000213D2052545F4E554C4C00002DE9F047BD
:1048F0000546894616461F46A846B8F1000F04D162
:1049000018220A490AA009F007FB34460CB1042F0B
:1049100002D00020BDE8F0872188D8F840008268E6
:104920002846904760803846F4E700003A6801085E
:1049300070696E20213D2052545F4E554C4C000052
:104940002DE9F0470546894616461F46A846B8F1A8
:10495000000F04D127220A490AA009F0DDFA3446E3
:104960000CB1042F02D00020BDE8F08762882188B6
:10497000D8F840004368284698473846F4E70000D6
:104980004468010870696E20213D2052545F4E55E5
:104990004C4C000070B5044624B94F22134914A0B2
:1049A00009F0BAFAA06A0078232809D1A16AE0695F
:1049B000884205D9D4E90A010844E16988420AD24B
:1049C000214610A00AF010FEFBF77EFC054600BF52
:1049D000002DFDD108E0A06A2030E169814203D8B2
:1049E00021460FA00AF000FE70BD000062710108B0
:1049F00074687265616420213D2052545F4E554CAD
:104A00004C0000007468726561643A257320737409
:104A100061636B206F766572666C6F770A000000C9
:104A20007761726E696E673A2025732073746163D3
:104A30006B20697320636C6F736520746F20656EE3
:104A400064206F6620737461636B206164647265B7
:104A500073732E0A000000002DE9FC5F04468B46AC
:104A600016461F46DDE90C9ADDE90E5804F11400E4
:104A70004060006000BF26626762C4F82890C4F8F6
:104A80002CA02321D4E90A020AF0CBFFD4E90A3C86
:104A900063441A1F174BD4E908010AF049FCE0618E
:104AA000202D04DBAF22144914A009F035FA30346C
:104AB000A57165710020A060C4F81480C4F8188046
:104AC00020602071A064E064303C00902346144ACA
:104AD0002146019004F14C000DF002FE00BF114888
:104AE000006818B120460F490968884700BF0020B8
:104AF000BDE8FC9F0D1E0108B07101087072696F5E
:104B000072697479203C2052545F544852454144A4
:104B10005F5052494F524954595F4D41580000006F
:104B20000D230108940200202DE9F04704460E46AB
:104B300017469846DDF8209084F80990607A20F0B6
:104B400001006072E66127620020A062C4F8248040
:104B5000002506E004F1140101EBC5000AF07EFD1A
:104B60006D1C012DF6DBBDE8F08770B5054600240D
:104B700006E005F1140101EBC4000AF0CAFD641C53
:104B8000012CF6DB70BD000010B50948006868B95B
:104B900000BF08A00AF028FD0A480AF025FD0AA077
:104BA0000AF022FD00BF01200149086010BD00008D
:104BB000800100201B5B33336D5B572F55415254EE
:104BC0005D200000C09B01081B5B306D0A000000E7
:104BD0002DE9F04706460F4615462EB94FF486726A
:104BE0001E491FA009F098F9A846F46C2CB94FF49F
:104BF00088721A491FA009F08FF928E0FBF764FBBF
:104C00008246E088A188884205D1A06818B950463C
:104C1000FBF75EFB1DE0E188206810F80190E0885A
:104C2000401CE080E188B06CC0F38F20814201DB42
:104C30000020E080A068012801D10020A06050463B
:104C4000FBF746FB87F800907F1C6D1E00BF002D10
:104C5000D4D100BFA8EB0500BDE8F087E2680108E9
:104C600073657269616C20213D2052545F4E554C32
:104C70004C00000072785F6669666F20213D20520B
:104C8000545F4E554C4C00002DE9F04104460E4651
:104C900015462CB94FF49E721B491C4809F03CF98B
:104CA000A846276D2FB94FF4A072174918A009F034
:104CB00033F923E030780A2810D1207E00F040003C
:104CC00060B1206C0D21826820469047401C28B9B5
:104CD0004FF0FF31384609F0C3F90FE03178206C0E
:104CE000826820469047401C28B94FF0FF31384673
:104CF00009F0B6F902E0761C6D1E00BF002DD9D177
:104D0000A8EB0500BDE8F081F1680108704D0008CE
:104D1000747820213D2052545F4E554C4C000000C9
:104D20002DE9F04106460F46144626B9D6220F4912
:104D30000FA009F0F1F8A04611E0306CC1683046D0
:104D400088470546681C00B90BE03D707F1C641E57
:104D5000307E00F0400010B10A2D00D101E0002C9F
:104D6000EBD100BFA8EB0400BDE8F081C2680108E8
:104D700073657269616C20213D2052545F4E554C21
:104D80004C0000002DE9F04104460E46154624B9BA
:104D9000ED220F490F4809F0BFF82F4612E0307896
:104DA0000A2808D1207E00F0400020B1206C0D219F
:104DB0008268204690473178206C82682046904770
:104DC000761C6D1E002DEAD1781BBDE8F081000035
:104DD000D2680108704D0008034611B1012902D1C3
:104DE00000E000E000BF00BF002070472DE9F04167
:104DF0000446884616461F46254625B91622094907
:104E000009A009F089F8E86E20B9172205490AA01F
:104E100009F082F83B4632460021E86E0CF08EFC29
:104E2000BDE8F081296A010862757320213D205296
:104E3000545F4E554C4C00006275732D3E6F776E7B
:104E4000657220213D2052545F4E554C4C000000AD
:104E50002DE9F0410446884616461F46254625B9E9
:104E60002422094909A009F057F8E86E20B9252243
:104E700005490AA009F050F83B4600223146E86E89
:104E80000CF05CFCBDE8F0813E6A0108627573209D
:104E9000213D2052545F4E554C4C00006275732DDD
:104EA0003E6F776E657220213D2052545F4E554C07
:104EB0004C000000034611B1012902D100E000E0DE
:104EC00000BF00BF002070472DE9F041044688462E
:104ED00016461F46254625B96822094909A009F04A
:104EE0001BF8286C20B9692205490BA009F014F8B9
:104EF0003B463246002128460CF020FCBDE8F081FC
:104F00006B6A010864657669636520213D2052540F
:104F10005F4E554C4C0000006465766963652D3E1C
:104F200062757320213D2052545F4E554C4C000059
:104F30002DE9F0410446884616461F46254625B908
:104F40007622094909A008F0E7FF286C20B97722EA
:104F500005490BA008F0E0FF3B46002231462846F9
:104F60000CF0ECFBBDE8F0817F6A010864657669AE
:104F7000636520213D2052545F4E554C4C0000008B
:104F80006465766963652D3E62757320213D20520C
:104F9000545F4E554C4C000070B50446FBF794F935
:104FA0000546A06F10B12046A16F88472846FBF741
:104FB0008FF970BD2DE9FE4F8146884616461C4686
:104FC000002509F120074FF0010B08EB0601D9F885
:104FD000100081420DD900BF49A00AF005FB4CA08A
:104FE0000AF002FB54A00AF0FFFA00BF0520BDE85A
:104FF000FE8FB86810B13846B968884708F00100DC
:1050000070B12046641C414608F1010801231A468C
:105010000090484605F02AFF054605B164E0761E7B
:10502000012148460DF0DEFE054605B15CE0AD20ED
:105030008DF8040045E0BBF1000F18D00DF105021A
:105040004146484605F001FD99F8350008B10520B4
:1050500000E004208246207801A901F80A00617866
:1050600001AA0AF1010011544FF0000B07E04FF0C4
:10507000010A20788DF8050060788DF80600002080
:10508000009003460AF1020201A93846D7F804C08D
:10509000E04705465DB100BF19A00AF0A5FA28A0B7
:1050A0000AF0A2FA24A00AF09FFA00BF1CE04846CA
:1050B00011F0A0F8054605B116E0B61E08F1020889
:1050C000A41C022EB7D2002148460DF08BFE0546E7
:1050D0004DB9012E07D101231A4641464846009496
:1050E00005F0C4FE054600BF1DB1002148460DF085
:1050F00079FEF86810B13846F9688847284676E79F
:105100001B5B33326D5B492F534655445D200000D5
:105110004572726F723A20466C61736820616464F4
:1051200072657373206973206F7574206F662062D7
:105130006F756E642E0000001B5B306D0A0000006E
:105140004572726F723A20466C617368207772699B
:1051500074652053504920636F6D6D756E6963618E
:105160007465206572726F722E0000000246002185
:1051700006E001208840904201D108467047491C52
:105180002029F6DB4FF0FF30F8E7000010B520A033
:105190000AF02AFA2148017821A00AF025FA1F48CE
:1051A000007800F0010010B123A00AF01DFA1B489E
:1051B000007800F0020010B122A00AF015FA17489A
:1051C000007800F0040010B121A00AF00DFA134895
:1051D000007800F0080010B121A00AF005FA0F488D
:1051E000007800F0100010B120A00AF0FDF90B4883
:1051F000007800F0800030B108480F3001681DA031
:105200000AF0F2F902E01FA00AF0EEF910BD00006A
:10521000627573206661756C743A0A0029ED00E0CE
:105220005343425F434653525F424653523A3078AB
:105230002530325820000000494255534552522033
:10524000000000005052454349534552522000008F
:10525000494D5052454349534552522000000000E9
:10526000554E53544B4552522000000053544B4569
:10527000525220005343422D3E424641523A25307D
:1052800038580A000A00000010B502A00AF0ACF974
:10529000002010BD1B5B324A1B5B480070B5044602
:1052A0000D4604F053FF002070BD70B504460D4656
:1052B00005F006FA002070BD30B504460D462A46BA
:1052C00021464FF0FF3000F003F8C04330BD00002E
:1052D000F0B50346184600240AE011F8016BC7B286
:1052E00086EA0705044E56F8256086EA1020641CFD
:1052F0009442F2D3F0BD0000CC7201082DE9F041D8
:1053000006460F461546B046032F15D12C462CB93C
:1053100040F25C720A490BA008F0FEFD98F84000CC
:105320002070412010F8080060700A480088A080B2
:1053300008484088E08000BF00BF0020BDE8F08141
:10534000E0670108696E666F20213D2052545F4E70
:10535000554C4C003C05002070B500250D4C4C21EF
:105360002046FBF761FA1021204680F84110052005
:10537000214681F8400007202075074860620748F1
:10538000A0630748E0630B2206A1204609F0C8F895
:10539000284670BD9C050020A9530008FD52000856
:1053A000300100206C63640010B590B0044600BF6B
:1053B00000200190FE48006840F00800FC490860A9
:1053C0000846006800F00800019000BF00BF00BF61
:1053D000002001900846006840F010000860084670
:1053E000006800F01000019000BF00BF00BF002067
:1053F00001900846006840F02000086008460068F8
:1054000000F02000019000BF00BF00BF002001900D
:105410000846006840F0400008600846006800F058
:105420004000019000BF00BF00BF0020019008466F
:10543000006840F0020008600846006800F00200C2
:10544000019000BF00BF00211F200AF0ADFF4FF008
:105450002040D8490860D84848600620886000216C
:10546000D448C16001611021416100218161C161A5
:10547000016241624FF4805181620021C1624FF4A8
:10548000804101630021416381634FF48011C16356
:10549000002141640F20099000200A903C200B90CD
:1054A00000200F9009200290002003900820049013
:1054B00000200590089002AA09A9BE48FDF74CFFFC
:1054C00020B140F21A21BDA0FFF76EF932200CF096
:1054D000AFFDD320FEF71AFDFEF7A8FABD4988807C
:1054E000FEF7A4FABB498880FEF7A0FAB949888084
:1054F000084680884FF6FF7101EA0020B549888090
:10550000FEF794FAB34989880843B249888008466F
:10551000808849F24131884278D0D420FEF7F6FCE9
:10552000FEF784FAAB498880FEF780FAA9498880A3
:10553000FEF77CFAA7498880084680884FF6FF71FD
:1055400001EA0020A3498880FEF770FAA149898802
:105550000843A04988800846808845F21031884277
:1055600054D04FF45A40FEF7D1FCFEF75FFA994948
:1055700088804FF45B40FEF7C9FCFEF757FA954967
:105580008880084680884FF6FF7101EA0020914923
:1055900088804FF45C40FEF7B9FCFEF747FA8D496E
:1055A000898808438B49888008468088B0F5004F79
:1055B00002D145F2105088808648808845F210510B
:1055C000884223D0A120FEF7A1FCFEF72FFA8149E3
:1055D0008880FEF72BFA7F498880084680884FF63E
:1055E000FF7101EA00207B498880FEF71FFA7949A4
:1055F00089880843774988800846808845F2617128
:10560000884203D141F663107249888000BF72A0BE
:1056100009F0EAFF6F48818874A009F0E5FF76A0E1
:1056200009F0E2FF00BF6B48808849F241318842AF
:105630007ED1CF20FEF76AFC0020FEF761FCC1207E
:10564000FEF75EFC3020FEF75BFCED20FEF75EFC13
:105650006420FEF755FC0320FEF752FC1220FEF7F3
:105660004FFC8120FEF74CFCE820FEF74FFC852024
:10567000FEF746FC1020FEF743FC7A20FEF740FCC4
:10568000CB20FEF743FC3920FEF73AFC2C20FEF736
:1056900037FC0020FEF734FC3420FEF731FC0220FA
:1056A000FEF72EFCF720FEF731FC2020FEF728FC49
:1056B000EA20FEF72BFC0020FEF722FC0020FEF77C
:1056C0001FFCC020FEF722FC1B20FEF719FCC120A6
:1056D000FEF71CFC0120FEF713FCC520FEF716FCAC
:1056E0003020FEF70DFC3020FEF70AFCC720FEF745
:1056F0000DFCB720FEF704FC3620FEF707FC48201F
:10570000FEF7FEFB3A20FEF701FC5520FEF7F8FB02
:10571000B120FEF7FBFB0020FEF7F2FB1A20FEF79C
:10572000EFFBB620FEF7F2FB0A20FEF7E9FB00E0F4
:10573000C1E0A220FEF7E4FBF220FEF7E7FB002029
:10574000FEF7DEFB2620FEF7E1FB0120FEF7D8FB8B
:10575000E020FEF7DBFB0F20FEF7D2FB2A20FEF74E
:10576000CFFB2820FEF7CCFB0820FEF7C9FB0E205C
:10577000FEF7C6FB0820FEF7C3FB5420FEF7C0FB74
:10578000A920FEF7BDFB4320FEF7BAFB0A20FEF777
:10579000B7FB0F20FEF7B4FB0020FEF7B1FB0020A3
:1057A000FEF7AEFB0020FEF7ABFB002028E0000078
:1057B000303802404C050020040100A02E2E5C7001
:1057C0006F7274735C6C63645C6472765F6C636448
:1057D0002E6300003C0500201B5B33326D5B492FBC
:1057E0006472762E6C63645D20000000204C43449C
:1057F0002049443A257800001B5B306D0A00000008
:10580000FEF77EFBE120FEF781FB0020FEF778FB30
:105810001520FEF775FB1720FEF772FB0720FEF739
:105820006FFB1120FEF76CFB0620FEF769FB2B20B7
:10583000FEF766FB5620FEF763FB3C20FEF760FB9D
:105840000520FEF75DFB1020FEF75AFB0F20FEF748
:1058500057FB3F20FEF754FB3F20FEF751FB0F2084
:10586000FEF74EFB2B20FEF751FB0020FEF748FB16
:105870000020FEF745FB0120FEF742FB3F20FEF72C
:105880003FFB2A20FEF742FB0020FEF739FB0020F9
:10589000FEF736FB0020FEF733FBEF20FEF730FB70
:1058A0001120FEF733FB78200CF0C2FB2920FEF715
:1058B0002DFB01F0CBBFFE48808845F210318842B5
:1058C00040F07C87ED20FEF721FB0120FEF718FB5E
:1058D000FE20FEF715FBEE20FEF718FBDE20FEF79C
:1058E0000FFB2120FEF70CFBF120FEF70FFB012040
:1058F000FEF706FBDF20FEF709FB1020FEF700FB9A
:10590000C420FEF703FB8F20FEF7FAFAC620FEF74D
:10591000FDFA0020FEF7F4FAE220FEF7F1FAE220A9
:10592000FEF7EEFAE220FEF7EBFABF20FEF7EEFA02
:10593000AA20FEF7E5FAB020FEF7E8FA0D20FEF700
:10594000DFFA0020FEF7DCFA0D20FEF7D9FA00207E
:10595000FEF7D6FA1120FEF7D3FA0020FEF7D0FAB0
:105960001920FEF7CDFA0020FEF7CAFA2120FEF733
:10597000C7FA0020FEF7C4FA2D20FEF7C1FA002076
:10598000FEF7BEFA3D20FEF7BBFA0020FEF7B8FA9C
:105990005D20FEF7B5FA0020FEF7B2FA5D20FEF7B3
:1059A000AFFA0020FEF7ACFAB120FEF7AFFA802084
:1059B000FEF7A6FA0020FEF7A3FA8B20FEF7A0FA66
:1059C0000020FEF79DFA9620FEF79AFA0020FEF7D7
:1059D00097FAB220FEF79AFA0020FEF791FA00201B
:1059E000FEF78EFA0220FEF78BFA0020FEF788FA07
:1059F0000320FEF785FA0020FEF782FAB320FEF7B7
:105A000085FA0020FEF77CFA0020FEF779FA0020E4
:105A1000FEF776FA0020FEF773FA0020FEF770FA20
:105A20000020FEF76DFA0020FEF76AFA0020FEF76C
:105A300067FA0020FEF764FA0020FEF761FA002002
:105A4000FEF75EFA0020FEF75BFA0020FEF758FA38
:105A50000020FEF755FA0020FEF752FA0020FEF76C
:105A60004FFA0020FEF74CFA0020FEF749FA00201A
:105A7000FEF746FA0020FEF743FA0020FEF740FA50
:105A80000020FEF73DFA0020FEF73AFA0020FEF76C
:105A900037FAB420FEF73AFA8B20FEF731FA0020ED
:105AA000FEF72EFA9620FEF72BFA0020FEF728FAD2
:105AB000A120FEF725FA0020FEF722FAB520FEF716
:105AC00025FA0220FEF71CFA0020FEF719FA03203F
:105AD000FEF716FA0020FEF713FA0420FEF710FA7C
